{
  "contractName": "EtherGovernance",
  "abi": [
    {
      "inputs": [
        {
          "internalType": "uint256",
          "name": "_proposalCreationRequirement",
          "type": "uint256"
        }
      ],
      "stateMutability": "nonpayable",
      "type": "constructor"
    },
    {
      "anonymous": false,
      "inputs": [
        {
          "indexed": true,
          "internalType": "address",
          "name": "_closer",
          "type": "address"
        },
        {
          "indexed": true,
          "internalType": "uint256",
          "name": "_proposalId",
          "type": "uint256"
        }
      ],
      "name": "CloseProposal",
      "type": "event"
    },
    {
      "anonymous": false,
      "inputs": [
        {
          "indexed": true,
          "internalType": "address",
          "name": "_creator",
          "type": "address"
        },
        {
          "indexed": true,
          "internalType": "uint256",
          "name": "_proposalId",
          "type": "uint256"
        }
      ],
      "name": "CreateProposal",
      "type": "event"
    },
    {
      "anonymous": false,
      "inputs": [
        {
          "indexed": true,
          "internalType": "address",
          "name": "_from",
          "type": "address"
        },
        {
          "indexed": false,
          "internalType": "uint256",
          "name": "_value",
          "type": "uint256"
        }
      ],
      "name": "Deposit",
      "type": "event"
    },
    {
      "anonymous": false,
      "inputs": [
        {
          "indexed": true,
          "internalType": "address",
          "name": "_voter",
          "type": "address"
        },
        {
          "indexed": true,
          "internalType": "uint256",
          "name": "_proposalId",
          "type": "uint256"
        },
        {
          "indexed": false,
          "internalType": "uint256",
          "name": "_votes",
          "type": "uint256"
        }
      ],
      "name": "Unvote",
      "type": "event"
    },
    {
      "anonymous": false,
      "inputs": [
        {
          "indexed": true,
          "internalType": "address",
          "name": "_voter",
          "type": "address"
        },
        {
          "indexed": true,
          "internalType": "uint256",
          "name": "_proposalId",
          "type": "uint256"
        },
        {
          "indexed": false,
          "internalType": "uint256",
          "name": "_value",
          "type": "uint256"
        },
        {
          "indexed": false,
          "internalType": "bool",
          "name": "_forAgainst",
          "type": "bool"
        }
      ],
      "name": "Vote",
      "type": "event"
    },
    {
      "anonymous": false,
      "inputs": [
        {
          "indexed": true,
          "internalType": "address",
          "name": "_to",
          "type": "address"
        },
        {
          "indexed": false,
          "internalType": "uint256",
          "name": "_value",
          "type": "uint256"
        }
      ],
      "name": "Withdraw",
      "type": "event"
    },
    {
      "inputs": [],
      "name": "owner",
      "outputs": [
        {
          "internalType": "address",
          "name": "",
          "type": "address"
        }
      ],
      "stateMutability": "view",
      "type": "function",
      "constant": true
    },
    {
      "inputs": [],
      "name": "proposalCount",
      "outputs": [
        {
          "internalType": "uint256",
          "name": "",
          "type": "uint256"
        }
      ],
      "stateMutability": "view",
      "type": "function",
      "constant": true
    },
    {
      "inputs": [],
      "name": "proposalCreationRequirement",
      "outputs": [
        {
          "internalType": "uint256",
          "name": "",
          "type": "uint256"
        }
      ],
      "stateMutability": "view",
      "type": "function",
      "constant": true
    },
    {
      "inputs": [
        {
          "internalType": "uint256",
          "name": "",
          "type": "uint256"
        }
      ],
      "name": "proposals",
      "outputs": [
        {
          "internalType": "address",
          "name": "creator",
          "type": "address"
        },
        {
          "internalType": "uint256",
          "name": "votesFor",
          "type": "uint256"
        },
        {
          "internalType": "uint256",
          "name": "votesAgainst",
          "type": "uint256"
        },
        {
          "internalType": "bool",
          "name": "isActive",
          "type": "bool"
        }
      ],
      "stateMutability": "view",
      "type": "function",
      "constant": true
    },
    {
      "inputs": [
        {
          "internalType": "address",
          "name": "",
          "type": "address"
        }
      ],
      "name": "votingPower",
      "outputs": [
        {
          "internalType": "uint256",
          "name": "",
          "type": "uint256"
        }
      ],
      "stateMutability": "view",
      "type": "function",
      "constant": true
    },
    {
      "stateMutability": "payable",
      "type": "receive",
      "payable": true
    },
    {
      "inputs": [
        {
          "internalType": "uint256",
          "name": "_amount",
          "type": "uint256"
        }
      ],
      "name": "redeemEther",
      "outputs": [],
      "stateMutability": "nonpayable",
      "type": "function"
    },
    {
      "inputs": [],
      "name": "createProposal",
      "outputs": [
        {
          "internalType": "uint256",
          "name": "",
          "type": "uint256"
        }
      ],
      "stateMutability": "nonpayable",
      "type": "function"
    },
    {
      "inputs": [
        {
          "internalType": "uint256",
          "name": "_proposalId",
          "type": "uint256"
        },
        {
          "internalType": "uint256",
          "name": "_votes",
          "type": "uint256"
        },
        {
          "internalType": "bool",
          "name": "_voteForAgainst",
          "type": "bool"
        }
      ],
      "name": "voteProposal",
      "outputs": [],
      "stateMutability": "nonpayable",
      "type": "function"
    },
    {
      "inputs": [
        {
          "internalType": "uint256",
          "name": "_proposalId",
          "type": "uint256"
        }
      ],
      "name": "unvoteFromProposal",
      "outputs": [],
      "stateMutability": "nonpayable",
      "type": "function"
    },
    {
      "inputs": [
        {
          "internalType": "uint256",
          "name": "_proposalId",
          "type": "uint256"
        }
      ],
      "name": "closeProposal",
      "outputs": [],
      "stateMutability": "nonpayable",
      "type": "function"
    },
    {
      "inputs": [
        {
          "internalType": "uint256",
          "name": "_proposalCreationRequirement",
          "type": "uint256"
        }
      ],
      "name": "updateProposalCreationRequirement",
      "outputs": [],
      "stateMutability": "nonpayable",
      "type": "function"
    },
    {
      "inputs": [],
      "name": "getOwner",
      "outputs": [
        {
          "internalType": "address",
          "name": "",
          "type": "address"
        }
      ],
      "stateMutability": "view",
      "type": "function",
      "constant": true
    },
    {
      "inputs": [],
      "name": "getVotingPower",
      "outputs": [
        {
          "internalType": "uint256",
          "name": "",
          "type": "uint256"
        }
      ],
      "stateMutability": "view",
      "type": "function",
      "constant": true
    },
    {
      "inputs": [
        {
          "internalType": "address",
          "name": "_addr",
          "type": "address"
        }
      ],
      "name": "getVotingPower",
      "outputs": [
        {
          "internalType": "uint256",
          "name": "",
          "type": "uint256"
        }
      ],
      "stateMutability": "view",
      "type": "function",
      "constant": true
    },
    {
      "inputs": [
        {
          "internalType": "uint256",
          "name": "_proposalId",
          "type": "uint256"
        }
      ],
      "name": "getProposalVotes",
      "outputs": [
        {
          "internalType": "uint256",
          "name": "",
          "type": "uint256"
        },
        {
          "internalType": "uint256",
          "name": "",
          "type": "uint256"
        }
      ],
      "stateMutability": "view",
      "type": "function",
      "constant": true
    },
    {
      "inputs": [
        {
          "internalType": "uint256",
          "name": "_proposalId",
          "type": "uint256"
        }
      ],
      "name": "isProposalActive",
      "outputs": [
        {
          "internalType": "bool",
          "name": "",
          "type": "bool"
        }
      ],
      "stateMutability": "view",
      "type": "function",
      "constant": true
    }
  ],
  "bytecode": "0x608060405234801561001057600080fd5b506040516114313803806114318339818101604052602081101561003357600080fd5b8101908080519060200190929190505050806001819055506000600381905550336000806101000a81548173ffffffffffffffffffffffffffffffffffffffff021916908373ffffffffffffffffffffffffffffffffffffffff1602179055505061138e806100a36000396000f3fe6080604052600436106100f75760003560e01c806378cd846b1161008a578063bb4d443611610059578063bb4d4436146104c6578063c07473f61461052b578063da35c66414610590578063e03de74c146105bb57610199565b806378cd846b146103de5780638535490f14610409578063893d20e8146104445780638da5cb5b1461048557610199565b8063164b3d2f116100c6578063164b3d2f146102bb578063180fd87f1461030c57806347c66140146103375780636cb5e3301461038d57610199565b8063013cf08b1461019e5780630386a0161461021a578063087f0270146102555780630f1b5eae1461028057610199565b366101995734600460003373ffffffffffffffffffffffffffffffffffffffff1673ffffffffffffffffffffffffffffffffffffffff168152602001908152602001600020600082825401925050819055503373ffffffffffffffffffffffffffffffffffffffff167fe1fffcc4923d04b559f4d29a8bfc6cda04eb5b0d3c460751c2402c5c5cc9109c346040518082815260200191505060405180910390a2005b600080fd5b3480156101aa57600080fd5b506101d7600480360360208110156101c157600080fd5b81019080803590602001909291905050506105f6565b604051808573ffffffffffffffffffffffffffffffffffffffff168152602001848152602001838152602001821515815260200194505050505060405180910390f35b34801561022657600080fd5b506102536004803603602081101561023d57600080fd5b8101908080359060200190929190505050610653565b005b34801561026157600080fd5b5061026a61081f565b6040518082815260200191505060405180910390f35b34801561028c57600080fd5b506102b9600480360360208110156102a357600080fd5b8101908080359060200190929190505050610866565b005b3480156102c757600080fd5b506102f4600480360360208110156102de57600080fd5b8101908080359060200190929190505050610ada565b60405180821515815260200191505060405180910390f35b34801561031857600080fd5b50610321610b07565b6040518082815260200191505060405180910390f35b34801561034357600080fd5b506103706004803603602081101561035a57600080fd5b8101908080359060200190929190505050610c96565b604051808381526020018281526020019250505060405180910390f35b34801561039957600080fd5b506103dc600480360360608110156103b057600080fd5b810190808035906020019092919080359060200190929190803515159060200190929190505050610cd0565b005b3480156103ea57600080fd5b506103f3610f60565b6040518082815260200191505060405180910390f35b34801561041557600080fd5b506104426004803603602081101561042c57600080fd5b8101908080359060200190929190505050610f66565b005b34801561045057600080fd5b506104596110e3565b604051808273ffffffffffffffffffffffffffffffffffffffff16815260200191505060405180910390f35b34801561049157600080fd5b5061049a61110c565b604051808273ffffffffffffffffffffffffffffffffffffffff16815260200191505060405180910390f35b3480156104d257600080fd5b50610515600480360360208110156104e957600080fd5b81019080803573ffffffffffffffffffffffffffffffffffffffff169060200190929190505050611130565b6040518082815260200191505060405180910390f35b34801561053757600080fd5b5061057a6004803603602081101561054e57600080fd5b81019080803573ffffffffffffffffffffffffffffffffffffffff169060200190929190505050611179565b6040518082815260200191505060405180910390f35b34801561059c57600080fd5b506105a5611191565b6040518082815260200191505060405180910390f35b3480156105c757600080fd5b506105f4600480360360208110156105de57600080fd5b8101908080359060200190929190505050611197565b005b60026020528060005260406000206000915090508060000160009054906101000a900473ffffffffffffffffffffffffffffffffffffffff16908060010154908060020154908060040160009054906101000a900460ff16905084565b806002600082815260200190815260200160002060040160009054906101000a900460ff166106ea576040517f08c379a00000000000000000000000000000000000000000000000000000000081526004018080602001828103825260128152602001807f50726f706f73616c20697320636c6f736564000000000000000000000000000081525060200191505060405180910390fd5b81338073ffffffffffffffffffffffffffffffffffffffff166002600084815260200190815260200160002060000160009054906101000a900473ffffffffffffffffffffffffffffffffffffffff1673ffffffffffffffffffffffffffffffffffffffff16146107a6576040517f08c379a000000000000000000000000000000000000000000000000000000000815260040180806020018281038252602e8152602001806112a8602e913960400191505060405180910390fd5b60006002600086815260200190815260200160002060040160006101000a81548160ff021916908315150217905550833373ffffffffffffffffffffffffffffffffffffffff167f74fe00428f193ec550e3eb297ec869d758b8ffc8047d7a868908c8a05ac6f20560405160405180910390a350505050565b6000600460003373ffffffffffffffffffffffffffffffffffffffff1673ffffffffffffffffffffffffffffffffffffffff16815260200190815260200160002054905090565b60006002600083815260200190815260200160002060030160003373ffffffffffffffffffffffffffffffffffffffff1673ffffffffffffffffffffffffffffffffffffffff1681526020019081526020016000205411610912576040517f08c379a00000000000000000000000000000000000000000000000000000000081526004018080602001828103825260248152602001806113356024913960400191505060405180910390fd5b6002600082815260200190815260200160002060030160003373ffffffffffffffffffffffffffffffffffffffff1673ffffffffffffffffffffffffffffffffffffffff16815260200190815260200160002054600460003373ffffffffffffffffffffffffffffffffffffffff1673ffffffffffffffffffffffffffffffffffffffff16815260200190815260200160002060008282540192505081905550803373ffffffffffffffffffffffffffffffffffffffff167f5e5ccd7c40f80f9b92cb040349fa9e3710d1d600a1ebc063c4a446ba2e3e62c46002600085815260200190815260200160002060030160003373ffffffffffffffffffffffffffffffffffffffff1673ffffffffffffffffffffffffffffffffffffffff168152602001908152602001600020546040518082815260200191505060405180910390a36002600082815260200190815260200160002060040160009054906101000a900460ff1615610ad75760006002600083815260200190815260200160002060030160003373ffffffffffffffffffffffffffffffffffffffff1673ffffffffffffffffffffffffffffffffffffffff168152602001908152602001600020819055505b50565b60006002600083815260200190815260200160002060040160009054906101000a900460ff169050919050565b600033600154600460008373ffffffffffffffffffffffffffffffffffffffff1673ffffffffffffffffffffffffffffffffffffffff168152602001908152602001600020541015610ba4576040517f08c379a00000000000000000000000000000000000000000000000000000000081526004018080602001828103825260398152602001806112d66039913960400191505060405180910390fd5b60006002600060035481526020019081526020016000209050338160000160006101000a81548173ffffffffffffffffffffffffffffffffffffffff021916908373ffffffffffffffffffffffffffffffffffffffff16021790555060018160040160006101000a81548160ff02191690831515021790555060008160020181905550600081600101819055506003543373ffffffffffffffffffffffffffffffffffffffff167fd6bdad376ac7e137d7144a453cddd70a511a0390213ae661913d779a4600f46560405160405180910390a36003600081548092919060010191905055506001600354039250505090565b6000806002600084815260200190815260200160002060010154600260008581526020019081526020016000206002015491509150915091565b826002600082815260200190815260200160002060040160009054906101000a900460ff16610d67576040517f08c379a00000000000000000000000000000000000000000000000000000000081526004018080602001828103825260128152602001807f50726f706f73616c20697320636c6f736564000000000000000000000000000081525060200191505060405180910390fd5b82600460003373ffffffffffffffffffffffffffffffffffffffff1673ffffffffffffffffffffffffffffffffffffffff168152602001908152602001600020541015610dff576040517f08c379a000000000000000000000000000000000000000000000000000000000815260040180806020018281038252602681526020018061130f6026913960400191505060405180910390fd5b8115610e2e57826002600086815260200190815260200160002060010160008282540192505081905550610e53565b8260026000868152602001908152602001600020600201600082825401925050819055505b82600460003373ffffffffffffffffffffffffffffffffffffffff1673ffffffffffffffffffffffffffffffffffffffff16815260200190815260200160002060008282540392505081905550826002600086815260200190815260200160002060030160003373ffffffffffffffffffffffffffffffffffffffff1673ffffffffffffffffffffffffffffffffffffffff16815260200190815260200160002060008282540192505081905550833373ffffffffffffffffffffffffffffffffffffffff167fcc939d87badad2d9cd8b8ad6e88410094ecbf0ff62eab203ccc917c330ee6c0085856040518083815260200182151581526020019250505060405180910390a350505050565b60015481565b80600460003373ffffffffffffffffffffffffffffffffffffffff1673ffffffffffffffffffffffffffffffffffffffff168152602001908152602001600020541015610ffe576040517f08c379a00000000000000000000000000000000000000000000000000000000081526004018080602001828103825260308152602001806112486030913960400191505060405180910390fd5b80600460003373ffffffffffffffffffffffffffffffffffffffff1673ffffffffffffffffffffffffffffffffffffffff168152602001908152602001600020600082825403925050819055503373ffffffffffffffffffffffffffffffffffffffff166108fc829081150290604051600060405180830381858888f19350505050158015611091573d6000803e3d6000fd5b503373ffffffffffffffffffffffffffffffffffffffff167f884edad9ce6fa2440d8a54cc123490eb96d2768479d49ff9c7366125a9424364826040518082815260200191505060405180910390a250565b60008060009054906101000a900473ffffffffffffffffffffffffffffffffffffffff16905090565b60008054906101000a900473ffffffffffffffffffffffffffffffffffffffff1681565b6000600460008373ffffffffffffffffffffffffffffffffffffffff1673ffffffffffffffffffffffffffffffffffffffff168152602001908152602001600020549050919050565b60046020528060005260406000206000915090505481565b60035481565b3360008054906101000a900473ffffffffffffffffffffffffffffffffffffffff1673ffffffffffffffffffffffffffffffffffffffff168173ffffffffffffffffffffffffffffffffffffffff161461123c576040517f08c379a00000000000000000000000000000000000000000000000000000000081526004018080602001828103825260308152602001806112786030913960400191505060405180910390fd5b81600181905550505056fe547279696e6720746f207769746864726177206d6f7265206574686572207468616e207468652075736572206f776e734f6e6c792074686520636f6e74726163742773206f776e65722063616e2063616c6c20746869732066756e6374696f6e4f6e6c792070726f706f73616c2063726561746f722063616e2061636365737320746869732066756e6374696f6e5573657220646f6573206e6f74206861766520656e6f75676820766f74696e6720706f77657220746f206372656174652070726f706f73616c5573657220646f6573206e6f74206861766520656e6f75676820766f74696e6720706f7765725573657220686173206e6f7420766f74656420666f7220746869732070726f706f73616ca2646970667358221220adc2f2d19777bb040590865f8f2472eec1eba3f37520ea852311937d796578cf64736f6c63430007060033",
  "immutableReferences": {},
  "source": "// SPDX-License-Identifier: MIT\r\npragma solidity >=0.7.0 <0.9.0;\r\n\r\ncontract EtherGovernance {\r\n    struct Proposal {\r\n        address creator;\r\n        uint256 votesFor;\r\n        uint256 votesAgainst;\r\n        mapping(address => uint256) votes;\r\n        bool isActive;\r\n        // hash of the proposal's text\r\n    }\r\n\r\n    /* state */\r\n    address public owner;\r\n    uint256 public proposalCreationRequirement;\r\n    mapping(uint256 => Proposal) public proposals;\r\n    uint256 public proposalCount;\r\n    mapping(address => uint256) public votingPower;\r\n\r\n    /* modifiers */\r\n\r\n    modifier mustBeActive(uint256 _proposalId) {\r\n        require(proposals[_proposalId].isActive, \"Proposal is closed\");\r\n        _;\r\n    }\r\n\r\n    modifier onlyOwner(address _addr) {\r\n        require(_addr == owner, \"Only the contract's owner can call this function\");\r\n        _;\r\n    }\r\n\r\n    modifier onlyCreator(uint256 _proposalId, address _sender) {\r\n        require(\r\n            proposals[_proposalId].creator == _sender,\r\n            \"Only proposal creator can access this function\"\r\n        );\r\n        _;\r\n    }\r\n\r\n    modifier hasVotingPower(address _sender) {\r\n        require(\r\n            votingPower[_sender] >= proposalCreationRequirement,\r\n            \"User does not have enough voting power to create proposal\"\r\n        );\r\n        _;\r\n    }\r\n\r\n    /* events */\r\n\r\n    //TODO events\r\n    event Deposit(address indexed _from, uint256 _value);\r\n\r\n    event Withdraw(address indexed _to, uint256 _value);\r\n\r\n    event CreateProposal(\r\n        address indexed _creator,\r\n        uint256 indexed _proposalId\r\n    );\r\n\r\n    event Vote(\r\n        address indexed _voter,\r\n        uint256 indexed _proposalId,\r\n        uint256 _value,\r\n        bool _forAgainst\r\n    );\r\n\r\n    event Unvote(\r\n        address indexed _voter,\r\n        uint256 indexed _proposalId,\r\n        uint256 _votes\r\n    );\r\n\r\n    event CloseProposal(address indexed _closer, uint256 indexed _proposalId);\r\n\r\n    /* functions */\r\n\r\n    constructor(uint256 _proposalCreationRequirement) {\r\n        proposalCreationRequirement = _proposalCreationRequirement;\r\n        proposalCount = 0;\r\n        owner = msg.sender;\r\n    }\r\n\r\n    receive() external payable {\r\n        votingPower[msg.sender] += msg.value;\r\n        emit Deposit(msg.sender, msg.value);\r\n    }\r\n\r\n    // user redeems all or some of the Ether he previously locked, granted that it's available and not used in ongoing proposals\r\n    function redeemEther(uint256 _amount) external {\r\n        require(\r\n            votingPower[msg.sender] >= _amount,\r\n            \"Trying to withdraw more ether than the user owns\"\r\n        );\r\n\r\n        votingPower[msg.sender] -= _amount;\r\n        payable(msg.sender).transfer(_amount);\r\n\r\n        emit Withdraw(msg.sender, _amount);\r\n    }\r\n\r\n    function createProposal()\r\n        external\r\n        hasVotingPower(msg.sender)\r\n        returns (uint256)\r\n    {\r\n        Proposal storage newProp = proposals[proposalCount];\r\n        newProp.creator = msg.sender;\r\n        newProp.isActive = true;\r\n        newProp.votesAgainst = 0;\r\n        newProp.votesFor = 0;\r\n        // hash of text = _hash\r\n\r\n        emit CreateProposal(msg.sender, proposalCount); //hash text\r\n\r\n        proposalCount++;\r\n        return (proposalCount - 1);\r\n    }\r\n\r\n    // user stakes some ether on a proposal to vote for/against it\r\n    function voteProposal(\r\n        uint256 _proposalId,\r\n        uint256 _votes,\r\n        bool _voteForAgainst\r\n    ) external mustBeActive(_proposalId) {\r\n        require(\r\n            votingPower[msg.sender] >= _votes,\r\n            \"User does not have enough voting power\"\r\n        );\r\n        if (_voteForAgainst) {\r\n            proposals[_proposalId].votesFor += _votes;\r\n        } else {\r\n            proposals[_proposalId].votesAgainst += _votes;\r\n        }\r\n        votingPower[msg.sender] -= _votes;\r\n        proposals[_proposalId].votes[msg.sender] += _votes;\r\n\r\n        emit Vote(msg.sender, _proposalId, _votes, _voteForAgainst);\r\n    }\r\n\r\n    // user redeems ether from a proposal\r\n    // can be used to \"unstake\" eth from a closed proposal or unvote a currently open one\r\n    function unvoteFromProposal(uint256 _proposalId) external {\r\n        require(\r\n            proposals[_proposalId].votes[msg.sender] > 0,\r\n            \"User has not voted for this proposal\"\r\n        );\r\n\r\n        votingPower[msg.sender] += proposals[_proposalId].votes[msg.sender];\r\n\r\n        emit Unvote(\r\n            msg.sender,\r\n            _proposalId,\r\n            proposals[_proposalId].votes[msg.sender]\r\n        );\r\n\r\n        if (proposals[_proposalId].isActive) {\r\n            proposals[_proposalId].votes[msg.sender] = 0;\r\n        }\r\n    }\r\n\r\n    // proposal creator closes the proposal, preventing new votes from coming in\r\n    function closeProposal(uint256 _proposalId)\r\n        external\r\n        mustBeActive(_proposalId)\r\n        onlyCreator(_proposalId, msg.sender)\r\n    {\r\n        proposals[_proposalId].isActive = false;\r\n        emit CloseProposal(msg.sender, _proposalId);\r\n    }\r\n\r\n    function updateProposalCreationRequirement(uint _proposalCreationRequirement) onlyOwner(msg.sender) external {\r\n        proposalCreationRequirement = _proposalCreationRequirement;\r\n    }\r\n\r\n    /* view functions */\r\n\r\n    function getOwner() public view returns (address) {\r\n        return owner;\r\n    }\r\n\r\n    function getVotingPower() public view returns (uint256) {\r\n        return votingPower[msg.sender];\r\n    }\r\n\r\n    function getVotingPower(address _addr) public view returns (uint256) {\r\n        return votingPower[_addr];\r\n    }\r\n\r\n    function getProposalVotes(uint256 _proposalId)\r\n        public\r\n        view\r\n        returns (uint256, uint256)\r\n    {\r\n        return (\r\n            proposals[_proposalId].votesFor,\r\n            proposals[_proposalId].votesAgainst\r\n        );\r\n    }\r\n\r\n    function isProposalActive(uint256 _proposalId) public view returns (bool) {\r\n        return proposals[_proposalId].isActive;\r\n    }\r\n}\r\n",
  "sourcePath": "C:\\Users\\paolo\\Code\\paolo\\Consensys\\react_final_project\\contracts\\EtherGovernance.sol",
  "compiler": {
    "name": "solc",
    "version": "0.7.6+commit.7338295f.Emscripten.clang"
  },
  "schemaVersion": "3.4.3",
  "updatedAt": "2021-11-13T16:11:49.489Z",
  "networkType": "ethereum",
  "devdoc": {
    "kind": "dev",
    "methods": {},
    "version": 1
  },
  "userdoc": {
    "kind": "user",
    "methods": {},
    "version": 1
  }
}