{
  "contractName": "EtherGovernance",
  "abi": [
    {
      "inputs": [
        {
          "internalType": "uint256",
          "name": "_proposalCreationRequirement",
          "type": "uint256"
        }
      ],
      "stateMutability": "nonpayable",
      "type": "constructor"
    },
    {
      "anonymous": false,
      "inputs": [
        {
          "indexed": true,
          "internalType": "address",
          "name": "_closer",
          "type": "address"
        },
        {
          "indexed": true,
          "internalType": "uint256",
          "name": "_proposalId",
          "type": "uint256"
        }
      ],
      "name": "CloseProposal",
      "type": "event"
    },
    {
      "anonymous": false,
      "inputs": [
        {
          "indexed": true,
          "internalType": "address",
          "name": "_creator",
          "type": "address"
        },
        {
          "indexed": false,
          "internalType": "string",
          "name": "_textHash",
          "type": "string"
        },
        {
          "indexed": true,
          "internalType": "uint256",
          "name": "_proposalId",
          "type": "uint256"
        }
      ],
      "name": "CreateProposal",
      "type": "event"
    },
    {
      "anonymous": false,
      "inputs": [
        {
          "indexed": true,
          "internalType": "address",
          "name": "_from",
          "type": "address"
        },
        {
          "indexed": false,
          "internalType": "uint256",
          "name": "_value",
          "type": "uint256"
        }
      ],
      "name": "Deposit",
      "type": "event"
    },
    {
      "anonymous": false,
      "inputs": [
        {
          "indexed": true,
          "internalType": "address",
          "name": "previousOwner",
          "type": "address"
        },
        {
          "indexed": true,
          "internalType": "address",
          "name": "newOwner",
          "type": "address"
        }
      ],
      "name": "OwnershipTransferred",
      "type": "event"
    },
    {
      "anonymous": false,
      "inputs": [
        {
          "indexed": true,
          "internalType": "address",
          "name": "_voter",
          "type": "address"
        },
        {
          "indexed": true,
          "internalType": "uint256",
          "name": "_proposalId",
          "type": "uint256"
        },
        {
          "indexed": false,
          "internalType": "uint256",
          "name": "_votes",
          "type": "uint256"
        }
      ],
      "name": "Unvote",
      "type": "event"
    },
    {
      "anonymous": false,
      "inputs": [
        {
          "indexed": true,
          "internalType": "address",
          "name": "_voter",
          "type": "address"
        },
        {
          "indexed": true,
          "internalType": "uint256",
          "name": "_proposalId",
          "type": "uint256"
        },
        {
          "indexed": false,
          "internalType": "uint256",
          "name": "_value",
          "type": "uint256"
        },
        {
          "indexed": false,
          "internalType": "bool",
          "name": "_forAgainst",
          "type": "bool"
        }
      ],
      "name": "Vote",
      "type": "event"
    },
    {
      "anonymous": false,
      "inputs": [
        {
          "indexed": true,
          "internalType": "address",
          "name": "_to",
          "type": "address"
        },
        {
          "indexed": false,
          "internalType": "uint256",
          "name": "_value",
          "type": "uint256"
        }
      ],
      "name": "Withdraw",
      "type": "event"
    },
    {
      "inputs": [],
      "name": "owner",
      "outputs": [
        {
          "internalType": "address",
          "name": "",
          "type": "address"
        }
      ],
      "stateMutability": "view",
      "type": "function",
      "constant": true
    },
    {
      "inputs": [],
      "name": "proposalCount",
      "outputs": [
        {
          "internalType": "uint256",
          "name": "",
          "type": "uint256"
        }
      ],
      "stateMutability": "view",
      "type": "function",
      "constant": true
    },
    {
      "inputs": [],
      "name": "proposalCreationRequirement",
      "outputs": [
        {
          "internalType": "uint256",
          "name": "",
          "type": "uint256"
        }
      ],
      "stateMutability": "view",
      "type": "function",
      "constant": true
    },
    {
      "inputs": [
        {
          "internalType": "uint256",
          "name": "",
          "type": "uint256"
        }
      ],
      "name": "proposals",
      "outputs": [
        {
          "internalType": "address",
          "name": "creator",
          "type": "address"
        },
        {
          "internalType": "uint256",
          "name": "votesFor",
          "type": "uint256"
        },
        {
          "internalType": "uint256",
          "name": "votesAgainst",
          "type": "uint256"
        },
        {
          "internalType": "bool",
          "name": "isActive",
          "type": "bool"
        },
        {
          "internalType": "string",
          "name": "textHash",
          "type": "string"
        }
      ],
      "stateMutability": "view",
      "type": "function",
      "constant": true
    },
    {
      "inputs": [],
      "name": "renounceOwnership",
      "outputs": [],
      "stateMutability": "nonpayable",
      "type": "function"
    },
    {
      "inputs": [
        {
          "internalType": "address",
          "name": "newOwner",
          "type": "address"
        }
      ],
      "name": "transferOwnership",
      "outputs": [],
      "stateMutability": "nonpayable",
      "type": "function"
    },
    {
      "inputs": [
        {
          "internalType": "address",
          "name": "",
          "type": "address"
        }
      ],
      "name": "votingPower",
      "outputs": [
        {
          "internalType": "uint256",
          "name": "",
          "type": "uint256"
        }
      ],
      "stateMutability": "view",
      "type": "function",
      "constant": true
    },
    {
      "stateMutability": "payable",
      "type": "receive",
      "payable": true
    },
    {
      "inputs": [
        {
          "internalType": "uint256",
          "name": "_amount",
          "type": "uint256"
        }
      ],
      "name": "redeemEther",
      "outputs": [],
      "stateMutability": "nonpayable",
      "type": "function"
    },
    {
      "inputs": [
        {
          "internalType": "string",
          "name": "_textHash",
          "type": "string"
        }
      ],
      "name": "createProposal",
      "outputs": [
        {
          "internalType": "uint256",
          "name": "",
          "type": "uint256"
        }
      ],
      "stateMutability": "nonpayable",
      "type": "function"
    },
    {
      "inputs": [
        {
          "internalType": "uint256",
          "name": "_proposalId",
          "type": "uint256"
        },
        {
          "internalType": "uint256",
          "name": "_votes",
          "type": "uint256"
        },
        {
          "internalType": "bool",
          "name": "_voteForAgainst",
          "type": "bool"
        }
      ],
      "name": "voteProposal",
      "outputs": [],
      "stateMutability": "nonpayable",
      "type": "function"
    },
    {
      "inputs": [
        {
          "internalType": "uint256",
          "name": "_proposalId",
          "type": "uint256"
        }
      ],
      "name": "unvoteFromProposal",
      "outputs": [],
      "stateMutability": "nonpayable",
      "type": "function"
    },
    {
      "inputs": [
        {
          "internalType": "uint256",
          "name": "_proposalId",
          "type": "uint256"
        }
      ],
      "name": "closeProposal",
      "outputs": [],
      "stateMutability": "nonpayable",
      "type": "function"
    },
    {
      "inputs": [
        {
          "internalType": "uint256",
          "name": "_proposalCreationRequirement",
          "type": "uint256"
        }
      ],
      "name": "updateProposalCreationRequirement",
      "outputs": [],
      "stateMutability": "nonpayable",
      "type": "function"
    },
    {
      "inputs": [],
      "name": "getVotingPower",
      "outputs": [
        {
          "internalType": "uint256",
          "name": "",
          "type": "uint256"
        }
      ],
      "stateMutability": "view",
      "type": "function",
      "constant": true
    },
    {
      "inputs": [
        {
          "internalType": "address",
          "name": "_addr",
          "type": "address"
        }
      ],
      "name": "getVotingPower",
      "outputs": [
        {
          "internalType": "uint256",
          "name": "",
          "type": "uint256"
        }
      ],
      "stateMutability": "view",
      "type": "function",
      "constant": true
    },
    {
      "inputs": [
        {
          "internalType": "uint256",
          "name": "_proposalId",
          "type": "uint256"
        }
      ],
      "name": "getProposalVotes",
      "outputs": [
        {
          "internalType": "uint256",
          "name": "",
          "type": "uint256"
        },
        {
          "internalType": "uint256",
          "name": "",
          "type": "uint256"
        }
      ],
      "stateMutability": "view",
      "type": "function",
      "constant": true
    },
    {
      "inputs": [
        {
          "internalType": "uint256",
          "name": "_proposalId",
          "type": "uint256"
        }
      ],
      "name": "isProposalActive",
      "outputs": [
        {
          "internalType": "bool",
          "name": "",
          "type": "bool"
        }
      ],
      "stateMutability": "view",
      "type": "function",
      "constant": true
    }
  ],
  "bytecode": "0x60806040523480156200001157600080fd5b50604051620020b4380380620020b4833981810160405281019062000037919062000150565b620000576200004b6200006d60201b60201c565b6200007560201b60201c565b80600181905550600060038190555050620001a0565b600033905090565b60008060009054906101000a900473ffffffffffffffffffffffffffffffffffffffff169050816000806101000a81548173ffffffffffffffffffffffffffffffffffffffff021916908373ffffffffffffffffffffffffffffffffffffffff1602179055508173ffffffffffffffffffffffffffffffffffffffff168173ffffffffffffffffffffffffffffffffffffffff167f8be0079c531659141344cd1fd0a4f28419497f9722a3daafe3b4186f6b6457e060405160405180910390a35050565b6000815190506200014a8162000186565b92915050565b6000602082840312156200016357600080fd5b6000620001738482850162000139565b91505092915050565b6000819050919050565b62000191816200017c565b81146200019d57600080fd5b50565b611f0480620001b06000396000f3fe6080604052600436106101025760003560e01c8063715018a611610095578063bb4d443611610064578063bb4d4436146103e7578063c07473f614610424578063da35c66414610461578063e03de74c1461048c578063f2fde38b146104b5576101ad565b8063715018a61461035157806378cd846b146103685780638535490f146103935780638da5cb5b146103bc576101ad565b8063164b3d2f116100d1578063164b3d2f1461027057806347c66140146102ad57806349c2a1a6146102eb5780636cb5e33014610328576101ad565b8063013cf08b146101b25780630386a016146101f3578063087f02701461021c5780630f1b5eae14610247576101ad565b366101ad5734600460003373ffffffffffffffffffffffffffffffffffffffff1673ffffffffffffffffffffffffffffffffffffffff16815260200190815260200160002060008282546101569190611c5c565b925050819055503373ffffffffffffffffffffffffffffffffffffffff167fe1fffcc4923d04b559f4d29a8bfc6cda04eb5b0d3c460751c2402c5c5cc9109c346040516101a39190611b67565b60405180910390a2005b600080fd5b3480156101be57600080fd5b506101d960048036038101906101d49190611564565b6104de565b6040516101ea9594939291906119b0565b60405180910390f35b3480156101ff57600080fd5b5061021a60048036038101906102159190611564565b6105c9565b005b34801561022857600080fd5b5061023161074c565b60405161023e9190611b67565b60405180910390f35b34801561025357600080fd5b5061026e60048036038101906102699190611564565b610793565b005b34801561027c57600080fd5b5061029760048036038101906102929190611564565b6109fa565b6040516102a49190611a0a565b60405180910390f35b3480156102b957600080fd5b506102d460048036038101906102cf9190611564565b610a27565b6040516102e2929190611bab565b60405180910390f35b3480156102f757600080fd5b50610312600480360381019061030d9190611523565b610a61565b60405161031f9190611b67565b60405180910390f35b34801561033457600080fd5b5061034f600480360381019061034a919061158d565b610c0f565b005b34801561035d57600080fd5b50610366610e72565b005b34801561037457600080fd5b5061037d610efa565b60405161038a9190611b67565b60405180910390f35b34801561039f57600080fd5b506103ba60048036038101906103b59190611564565b610f00565b005b3480156103c857600080fd5b506103d16110d6565b6040516103de9190611995565b60405180910390f35b3480156103f357600080fd5b5061040e600480360381019061040991906114fa565b6110ff565b60405161041b9190611b67565b60405180910390f35b34801561043057600080fd5b5061044b600480360381019061044691906114fa565b611148565b6040516104589190611b67565b60405180910390f35b34801561046d57600080fd5b50610476611160565b6040516104839190611b67565b60405180910390f35b34801561049857600080fd5b506104b360048036038101906104ae9190611564565b611166565b005b3480156104c157600080fd5b506104dc60048036038101906104d791906114fa565b6111ec565b005b60026020528060005260406000206000915090508060000160009054906101000a900473ffffffffffffffffffffffffffffffffffffffff16908060010154908060020154908060040160009054906101000a900460ff169080600501805461054690611d70565b80601f016020809104026020016040519081016040528092919081815260200182805461057290611d70565b80156105bf5780601f10610594576101008083540402835291602001916105bf565b820191906000526020600020905b8154815290600101906020018083116105a257829003601f168201915b5050505050905085565b806002600082815260200190815260200160002060040160009054906101000a900460ff1661062d576040517f08c379a000000000000000000000000000000000000000000000000000000000815260040161062490611aa7565b60405180910390fd5b81338073ffffffffffffffffffffffffffffffffffffffff166002600084815260200190815260200160002060000160009054906101000a900473ffffffffffffffffffffffffffffffffffffffff1673ffffffffffffffffffffffffffffffffffffffff16146106d3576040517f08c379a00000000000000000000000000000000000000000000000000000000081526004016106ca90611a87565b60405180910390fd5b60006002600086815260200190815260200160002060040160006101000a81548160ff021916908315150217905550833373ffffffffffffffffffffffffffffffffffffffff167f74fe00428f193ec550e3eb297ec869d758b8ffc8047d7a868908c8a05ac6f20560405160405180910390a350505050565b6000600460003373ffffffffffffffffffffffffffffffffffffffff1673ffffffffffffffffffffffffffffffffffffffff16815260200190815260200160002054905090565b60006002600083815260200190815260200160002060030160003373ffffffffffffffffffffffffffffffffffffffff1673ffffffffffffffffffffffffffffffffffffffff1681526020019081526020016000205411610829576040517f08c379a000000000000000000000000000000000000000000000000000000000815260040161082090611b27565b60405180910390fd5b6002600082815260200190815260200160002060030160003373ffffffffffffffffffffffffffffffffffffffff1673ffffffffffffffffffffffffffffffffffffffff16815260200190815260200160002054600460003373ffffffffffffffffffffffffffffffffffffffff1673ffffffffffffffffffffffffffffffffffffffff16815260200190815260200160002060008282546108cb9190611c5c565b92505081905550803373ffffffffffffffffffffffffffffffffffffffff167f5e5ccd7c40f80f9b92cb040349fa9e3710d1d600a1ebc063c4a446ba2e3e62c46002600085815260200190815260200160002060030160003373ffffffffffffffffffffffffffffffffffffffff1673ffffffffffffffffffffffffffffffffffffffff1681526020019081526020016000205460405161096c9190611b67565b60405180910390a36002600082815260200190815260200160002060040160009054906101000a900460ff16156109f75760006002600083815260200190815260200160002060030160003373ffffffffffffffffffffffffffffffffffffffff1673ffffffffffffffffffffffffffffffffffffffff168152602001908152602001600020819055505b50565b60006002600083815260200190815260200160002060040160009054906101000a900460ff169050919050565b6000806002600084815260200190815260200160002060010154600260008581526020019081526020016000206002015491509150915091565b600033600154600460008373ffffffffffffffffffffffffffffffffffffffff1673ffffffffffffffffffffffffffffffffffffffff168152602001908152602001600020541015610ae8576040517f08c379a0000000000000000000000000000000000000000000000000000000008152600401610adf90611ac7565b60405180910390fd5b60006002600060035481526020019081526020016000209050338160000160006101000a81548173ffffffffffffffffffffffffffffffffffffffff021916908373ffffffffffffffffffffffffffffffffffffffff16021790555060018160040160006101000a81548160ff021916908315150217905550600081600201819055506000816001018190555083816005019080519060200190610b8d9291906113b0565b506003543373ffffffffffffffffffffffffffffffffffffffff167fabb04c75af6a8ad803c3c0fcc8426ec3575303857d95e6f8682cccd5d955335886604051610bd79190611a25565b60405180910390a360036000815480929190610bf290611da2565b91905055506001600354610c069190611cb2565b92505050919050565b826002600082815260200190815260200160002060040160009054906101000a900460ff16610c73576040517f08c379a0000000000000000000000000000000000000000000000000000000008152600401610c6a90611aa7565b60405180910390fd5b82600460003373ffffffffffffffffffffffffffffffffffffffff1673ffffffffffffffffffffffffffffffffffffffff168152602001908152602001600020541015610cf5576040517f08c379a0000000000000000000000000000000000000000000000000000000008152600401610cec90611b07565b60405180910390fd5b8115610d2d5782600260008681526020019081526020016000206001016000828254610d219190611c5c565b92505081905550610d5b565b82600260008681526020019081526020016000206002016000828254610d539190611c5c565b925050819055505b82600460003373ffffffffffffffffffffffffffffffffffffffff1673ffffffffffffffffffffffffffffffffffffffff1681526020019081526020016000206000828254610daa9190611cb2565b92505081905550826002600086815260200190815260200160002060030160003373ffffffffffffffffffffffffffffffffffffffff1673ffffffffffffffffffffffffffffffffffffffff1681526020019081526020016000206000828254610e149190611c5c565b92505081905550833373ffffffffffffffffffffffffffffffffffffffff167fcc939d87badad2d9cd8b8ad6e88410094ecbf0ff62eab203ccc917c330ee6c008585604051610e64929190611b82565b60405180910390a350505050565b610e7a6112e4565b73ffffffffffffffffffffffffffffffffffffffff16610e986110d6565b73ffffffffffffffffffffffffffffffffffffffff1614610eee576040517f08c379a0000000000000000000000000000000000000000000000000000000008152600401610ee590611ae7565b60405180910390fd5b610ef860006112ec565b565b60015481565b80600460003373ffffffffffffffffffffffffffffffffffffffff1673ffffffffffffffffffffffffffffffffffffffff168152602001908152602001600020541015610f82576040517f08c379a0000000000000000000000000000000000000000000000000000000008152600401610f7990611a67565b60405180910390fd5b80600460003373ffffffffffffffffffffffffffffffffffffffff1673ffffffffffffffffffffffffffffffffffffffff1681526020019081526020016000206000828254610fd19190611cb2565b9250508190555060003373ffffffffffffffffffffffffffffffffffffffff1682604051610ffe90611980565b60006040518083038185875af1925050503d806000811461103b576040519150601f19603f3d011682016040523d82523d6000602084013e611040565b606091505b5050905080611084576040517f08c379a000000000000000000000000000000000000000000000000000000000815260040161107b90611b47565b60405180910390fd5b3373ffffffffffffffffffffffffffffffffffffffff167f884edad9ce6fa2440d8a54cc123490eb96d2768479d49ff9c7366125a9424364836040516110ca9190611b67565b60405180910390a25050565b60008060009054906101000a900473ffffffffffffffffffffffffffffffffffffffff16905090565b6000600460008373ffffffffffffffffffffffffffffffffffffffff1673ffffffffffffffffffffffffffffffffffffffff168152602001908152602001600020549050919050565b60046020528060005260406000206000915090505481565b60035481565b61116e6112e4565b73ffffffffffffffffffffffffffffffffffffffff1661118c6110d6565b73ffffffffffffffffffffffffffffffffffffffff16146111e2576040517f08c379a00000000000000000000000000000000000000000000000000000000081526004016111d990611ae7565b60405180910390fd5b8060018190555050565b6111f46112e4565b73ffffffffffffffffffffffffffffffffffffffff166112126110d6565b73ffffffffffffffffffffffffffffffffffffffff1614611268576040517f08c379a000000000000000000000000000000000000000000000000000000000815260040161125f90611ae7565b60405180910390fd5b600073ffffffffffffffffffffffffffffffffffffffff168173ffffffffffffffffffffffffffffffffffffffff1614156112d8576040517f08c379a00000000000000000000000000000000000000000000000000000000081526004016112cf90611a47565b60405180910390fd5b6112e1816112ec565b50565b600033905090565b60008060009054906101000a900473ffffffffffffffffffffffffffffffffffffffff169050816000806101000a81548173ffffffffffffffffffffffffffffffffffffffff021916908373ffffffffffffffffffffffffffffffffffffffff1602179055508173ffffffffffffffffffffffffffffffffffffffff168173ffffffffffffffffffffffffffffffffffffffff167f8be0079c531659141344cd1fd0a4f28419497f9722a3daafe3b4186f6b6457e060405160405180910390a35050565b8280546113bc90611d70565b90600052602060002090601f0160209004810192826113de5760008555611425565b82601f106113f757805160ff1916838001178555611425565b82800160010185558215611425579182015b82811115611424578251825591602001919060010190611409565b5b5090506114329190611436565b5090565b5b8082111561144f576000816000905550600101611437565b5090565b600061146661146184611c05565b611bd4565b90508281526020810184848401111561147e57600080fd5b611489848285611d2e565b509392505050565b6000813590506114a081611e89565b92915050565b6000813590506114b581611ea0565b92915050565b600082601f8301126114cc57600080fd5b81356114dc848260208601611453565b91505092915050565b6000813590506114f481611eb7565b92915050565b60006020828403121561150c57600080fd5b600061151a84828501611491565b91505092915050565b60006020828403121561153557600080fd5b600082013567ffffffffffffffff81111561154f57600080fd5b61155b848285016114bb565b91505092915050565b60006020828403121561157657600080fd5b6000611584848285016114e5565b91505092915050565b6000806000606084860312156115a257600080fd5b60006115b0868287016114e5565b93505060206115c1868287016114e5565b92505060406115d2868287016114a6565b9150509250925092565b6115e581611ce6565b82525050565b6115f481611cf8565b82525050565b600061160582611c35565b61160f8185611c4b565b935061161f818560208601611d3d565b61162881611e78565b840191505092915050565b6000611640602683611c4b565b91507f4f776e61626c653a206e6577206f776e657220697320746865207a65726f206160008301527f64647265737300000000000000000000000000000000000000000000000000006020830152604082019050919050565b60006116a6603083611c4b565b91507f547279696e6720746f207769746864726177206d6f726520657468657220746860008301527f616e207468652075736572206f776e73000000000000000000000000000000006020830152604082019050919050565b600061170c602e83611c4b565b91507f4f6e6c792070726f706f73616c2063726561746f722063616e2061636365737360008301527f20746869732066756e6374696f6e0000000000000000000000000000000000006020830152604082019050919050565b6000611772601283611c4b565b91507f50726f706f73616c20697320636c6f73656400000000000000000000000000006000830152602082019050919050565b60006117b2603983611c4b565b91507f5573657220646f6573206e6f74206861766520656e6f75676820766f74696e6760008301527f20706f77657220746f206372656174652070726f706f73616c000000000000006020830152604082019050919050565b6000611818602083611c4b565b91507f4f776e61626c653a2063616c6c6572206973206e6f7420746865206f776e65726000830152602082019050919050565b6000611858602683611c4b565b91507f5573657220646f6573206e6f74206861766520656e6f75676820766f74696e6760008301527f20706f77657200000000000000000000000000000000000000000000000000006020830152604082019050919050565b60006118be602483611c4b565b91507f5573657220686173206e6f7420766f74656420666f7220746869732070726f7060008301527f6f73616c000000000000000000000000000000000000000000000000000000006020830152604082019050919050565b6000611924600083611c40565b9150600082019050919050565b600061193e601083611c4b565b91507f5472616e73666572206661696c65642e000000000000000000000000000000006000830152602082019050919050565b61197a81611d24565b82525050565b600061198b82611917565b9150819050919050565b60006020820190506119aa60008301846115dc565b92915050565b600060a0820190506119c560008301886115dc565b6119d26020830187611971565b6119df6040830186611971565b6119ec60608301856115eb565b81810360808301526119fe81846115fa565b90509695505050505050565b6000602082019050611a1f60008301846115eb565b92915050565b60006020820190508181036000830152611a3f81846115fa565b905092915050565b60006020820190508181036000830152611a6081611633565b9050919050565b60006020820190508181036000830152611a8081611699565b9050919050565b60006020820190508181036000830152611aa0816116ff565b9050919050565b60006020820190508181036000830152611ac081611765565b9050919050565b60006020820190508181036000830152611ae0816117a5565b9050919050565b60006020820190508181036000830152611b008161180b565b9050919050565b60006020820190508181036000830152611b208161184b565b9050919050565b60006020820190508181036000830152611b40816118b1565b9050919050565b60006020820190508181036000830152611b6081611931565b9050919050565b6000602082019050611b7c6000830184611971565b92915050565b6000604082019050611b976000830185611971565b611ba460208301846115eb565b9392505050565b6000604082019050611bc06000830185611971565b611bcd6020830184611971565b9392505050565b6000604051905081810181811067ffffffffffffffff82111715611bfb57611bfa611e49565b5b8060405250919050565b600067ffffffffffffffff821115611c2057611c1f611e49565b5b601f19601f8301169050602081019050919050565b600081519050919050565b600081905092915050565b600082825260208201905092915050565b6000611c6782611d24565b9150611c7283611d24565b9250827fffffffffffffffffffffffffffffffffffffffffffffffffffffffffffffffff03821115611ca757611ca6611deb565b5b828201905092915050565b6000611cbd82611d24565b9150611cc883611d24565b925082821015611cdb57611cda611deb565b5b828203905092915050565b6000611cf182611d04565b9050919050565b60008115159050919050565b600073ffffffffffffffffffffffffffffffffffffffff82169050919050565b6000819050919050565b82818337600083830152505050565b60005b83811015611d5b578082015181840152602081019050611d40565b83811115611d6a576000848401525b50505050565b60006002820490506001821680611d8857607f821691505b60208210811415611d9c57611d9b611e1a565b5b50919050565b6000611dad82611d24565b91507fffffffffffffffffffffffffffffffffffffffffffffffffffffffffffffffff821415611de057611ddf611deb565b5b600182019050919050565b7f4e487b7100000000000000000000000000000000000000000000000000000000600052601160045260246000fd5b7f4e487b7100000000000000000000000000000000000000000000000000000000600052602260045260246000fd5b7f4e487b7100000000000000000000000000000000000000000000000000000000600052604160045260246000fd5b6000601f19601f8301169050919050565b611e9281611ce6565b8114611e9d57600080fd5b50565b611ea981611cf8565b8114611eb457600080fd5b50565b611ec081611d24565b8114611ecb57600080fd5b5056fea2646970667358221220a4274c96deae299a80b81588848a5423287eba637c91900c8b233cc96f1e592c64736f6c63430008000033",
  "immutableReferences": {},
  "source": "// SPDX-License-Identifier: MIT\r\npragma solidity 0.8.0;\r\n\r\nimport \"./Ownable.sol\";\r\n\r\n/// @title On-chain governance based on Ether\r\n/// @author paolofacchinetti\r\n/// @notice You can use this library as per MIT license\r\n/// @dev \r\ncontract EtherGovernance is Ownable {\r\n    struct Proposal {\r\n        address creator;\r\n        uint256 votesFor;\r\n        uint256 votesAgainst;\r\n        mapping(address => uint256) votes;\r\n        bool isActive;\r\n        string textHash;\r\n    }\r\n\r\n    /* state */\r\n    uint256 public proposalCreationRequirement;\r\n    mapping(uint256 => Proposal) public proposals;\r\n    uint256 public proposalCount;\r\n    mapping(address => uint256) public votingPower;\r\n\r\n    /* modifiers */\r\n    modifier mustBeActive(uint256 _proposalId) {\r\n        require(proposals[_proposalId].isActive, \"Proposal is closed\");\r\n        _;\r\n    }\r\n\r\n    modifier onlyCreator(uint256 _proposalId, address _sender) {\r\n        require(\r\n            proposals[_proposalId].creator == _sender,\r\n            \"Only proposal creator can access this function\"\r\n        );\r\n        _;\r\n    }\r\n\r\n    modifier hasVotingPower(address _sender) {\r\n        require(\r\n            votingPower[_sender] >= proposalCreationRequirement,\r\n            \"User does not have enough voting power to create proposal\"\r\n        );\r\n        _;\r\n    }\r\n\r\n    /* events */\r\n    event Deposit(address indexed _from, uint256 _value);\r\n\r\n    event Withdraw(address indexed _to, uint256 _value);\r\n\r\n    event CreateProposal(\r\n        address indexed _creator,\r\n        string _textHash,\r\n        uint256 indexed _proposalId\r\n    );\r\n\r\n    event Vote(\r\n        address indexed _voter,\r\n        uint256 indexed _proposalId,\r\n        uint256 _value,\r\n        bool _forAgainst\r\n    );\r\n\r\n    event Unvote(\r\n        address indexed _voter,\r\n        uint256 indexed _proposalId,\r\n        uint256 _votes\r\n    );\r\n\r\n    event CloseProposal(address indexed _closer, uint256 indexed _proposalId);\r\n\r\n    /* functions */\r\n\r\n    /**\r\n     * @dev Initializes the contract setting an initial proposalCreationRequirement and setting the deployer as the initial owner\r\n     */\r\n    constructor(uint256 _proposalCreationRequirement) {\r\n        proposalCreationRequirement = _proposalCreationRequirement;\r\n        proposalCount = 0;\r\n    }\r\n\r\n    receive() external payable {\r\n        votingPower[msg.sender] += msg.value;\r\n        emit Deposit(msg.sender, msg.value);\r\n    }\r\n\r\n    /**\r\n     * @dev user redeems all or some of the Ether he previously locked, granted that it's available and not used in ongoing proposals\r\n     */\r\n    function redeemEther(uint256 _amount) external {\r\n        require(\r\n            votingPower[msg.sender] >= _amount,\r\n            \"Trying to withdraw more ether than the user owns\"\r\n        );\r\n\r\n        votingPower[msg.sender] -= _amount;\r\n\r\n        (bool success, ) = msg.sender.call{value: _amount}(\"\");\r\n        require(success, \"Transfer failed.\");\r\n\r\n        emit Withdraw(msg.sender, _amount);\r\n    }\r\n\r\n    /**\r\n     * @dev user creates a proposal\r\n     */\r\n    function createProposal(string memory _textHash)\r\n        external\r\n        hasVotingPower(msg.sender)\r\n        returns (uint256)\r\n    {\r\n        Proposal storage newProp = proposals[proposalCount];\r\n        newProp.creator = msg.sender;\r\n        newProp.isActive = true;\r\n        newProp.votesAgainst = 0;\r\n        newProp.votesFor = 0;\r\n        newProp.textHash = _textHash;\r\n\r\n        emit CreateProposal(msg.sender, _textHash, proposalCount); \r\n\r\n        proposalCount++;\r\n        return (proposalCount - 1);\r\n    }\r\n\r\n    /**\r\n     * @dev user votes on a proposal by allocating some of his voting power\r\n     */\r\n    function voteProposal(\r\n        uint256 _proposalId,\r\n        uint256 _votes,\r\n        bool _voteForAgainst\r\n    ) external mustBeActive(_proposalId) {\r\n        require(\r\n            votingPower[msg.sender] >= _votes,\r\n            \"User does not have enough voting power\"\r\n        );\r\n        if (_voteForAgainst) {\r\n            proposals[_proposalId].votesFor += _votes;\r\n        } else {\r\n            proposals[_proposalId].votesAgainst += _votes;\r\n        }\r\n        votingPower[msg.sender] -= _votes;\r\n        proposals[_proposalId].votes[msg.sender] += _votes;\r\n\r\n        emit Vote(msg.sender, _proposalId, _votes, _voteForAgainst);\r\n    }\r\n\r\n    /**\r\n     * @dev user unvotes from a proposal, redeeming the voting power he previously committed to the proposal.\r\n     * Can be done on both an open and an already closed proposal\r\n     */\r\n    function unvoteFromProposal(uint256 _proposalId) external {\r\n        require(\r\n            proposals[_proposalId].votes[msg.sender] > 0,\r\n            \"User has not voted for this proposal\"\r\n        );\r\n\r\n        votingPower[msg.sender] += proposals[_proposalId].votes[msg.sender];\r\n\r\n        emit Unvote(\r\n            msg.sender,\r\n            _proposalId,\r\n            proposals[_proposalId].votes[msg.sender]\r\n        );\r\n\r\n        if (proposals[_proposalId].isActive) {\r\n            proposals[_proposalId].votes[msg.sender] = 0;\r\n        }\r\n    }\r\n\r\n    /**\r\n     * @dev the proposal creator closes the proposal, preventing new votes\r\n     */\r\n    function closeProposal(uint256 _proposalId)\r\n        external\r\n        mustBeActive(_proposalId)\r\n        onlyCreator(_proposalId, msg.sender)\r\n    {\r\n        proposals[_proposalId].isActive = false;\r\n        emit CloseProposal(msg.sender, _proposalId);\r\n    }\r\n\r\n    /**\r\n     * @dev contract's owner updates the proposalCreationRequirement value, which is the minimum amount of voting power\r\n     * required to open a new proposal\r\n     */\r\n    function updateProposalCreationRequirement(uint _proposalCreationRequirement) onlyOwner() external {\r\n        proposalCreationRequirement = _proposalCreationRequirement;\r\n    }\r\n\r\n    /* view functions */\r\n\r\n    function getVotingPower() public view returns (uint256) {\r\n        return votingPower[msg.sender];\r\n    }\r\n\r\n    function getVotingPower(address _addr) public view returns (uint256) {\r\n        return votingPower[_addr];\r\n    }\r\n\r\n    function getProposalVotes(uint256 _proposalId)\r\n        public\r\n        view\r\n        returns (uint256, uint256)\r\n    {\r\n        return (\r\n            proposals[_proposalId].votesFor,\r\n            proposals[_proposalId].votesAgainst\r\n        );\r\n    }\r\n\r\n    function isProposalActive(uint256 _proposalId) public view returns (bool) {\r\n        return proposals[_proposalId].isActive;\r\n    }\r\n}\r\n",
  "sourcePath": "C:\\Users\\paolo\\Code\\paolo\\Consensys\\blockchain-developer-bootcamp-final-project\\contracts\\EtherGovernance.sol",
  "compiler": {
    "name": "solc",
    "version": "0.8.0+commit.c7dfd78e.Emscripten.clang"
  },
  "schemaVersion": "3.4.3",
  "updatedAt": "2021-11-28T13:22:21.774Z",
  "networkType": "ethereum",
  "devdoc": {
    "author": "paolofacchinetti",
    "kind": "dev",
    "methods": {
      "closeProposal(uint256)": {
        "details": "the proposal creator closes the proposal, preventing new votes"
      },
      "constructor": {
        "details": "Initializes the contract setting an initial proposalCreationRequirement and setting the deployer as the initial owner"
      },
      "createProposal(string)": {
        "details": "user creates a proposal"
      },
      "owner()": {
        "details": "Returns the address of the current owner."
      },
      "redeemEther(uint256)": {
        "details": "user redeems all or some of the Ether he previously locked, granted that it's available and not used in ongoing proposals"
      },
      "renounceOwnership()": {
        "details": "Leaves the contract without owner. It will not be possible to call `onlyOwner` functions anymore. Can only be called by the current owner. NOTE: Renouncing ownership will leave the contract without an owner, thereby removing any functionality that is only available to the owner."
      },
      "transferOwnership(address)": {
        "details": "Transfers ownership of the contract to a new account (`newOwner`). Can only be called by the current owner."
      },
      "unvoteFromProposal(uint256)": {
        "details": "user unvotes from a proposal, redeeming the voting power he previously committed to the proposal. Can be done on both an open and an already closed proposal"
      },
      "updateProposalCreationRequirement(uint256)": {
        "details": "contract's owner updates the proposalCreationRequirement value, which is the minimum amount of voting power required to open a new proposal"
      },
      "voteProposal(uint256,uint256,bool)": {
        "details": "user votes on a proposal by allocating some of his voting power"
      }
    },
    "title": "On-chain governance based on Ether",
    "version": 1
  },
  "userdoc": {
    "kind": "user",
    "methods": {},
    "notice": "You can use this library as per MIT license",
    "version": 1
  }
}